:08000000803102288731FB2F3B
:100F5400FC3021009900903027009B0021001A1BCF
:100F64000800B02F57302100950022008C01230087
:100F74008C010F3021008C0022008D0123008D0193
:100F8400F03021008D0022008E0123008E010730F5
:100F940021008E0008008731AA2787318731B427C2
:100FA400873120000D1AD92F22000E16DB2F2200C4
:100FB4000E1220008D1BE52F7008031DE52F220063
:100FC4008E17F001F00A20008D1FEB2F22008E13E4
:100FD400F00120008D1AF02F22008E1620000D1B28
:100FE400F52F22008E1220008C19D32F80311C285B
:0C0FF400D32FF001F10120008731CD2F38
:020000040001F9
:04000E0084CFCFDFED
:00000001FF
